:03000000020A7D74
:0C0A7D00787FE4F6D8FD75810E020800B9
:100A3300D2A6120A44C2A6120A44D2A6120A44C279
:010A4300A60C
:100A4400E4FDFCC3ED9FEC9E5015E4FBFA0BBB00E8
:0F0A5400010AEB64C84A70F50DBD00010C80E487
:010A63002270
:03000300020A8965
:040A8900750B0132B6
:03001300020A8D51
:040A8D00750C0132B1
:060A6400D284C285C286A7
:100A6A00758910758BFD758D4BD28E308FFDC28EB8
:030A7A00C28F2206
:10080000D2AFD2A8D2AAC2A6D293C294C295D2A382
:10081000C2A4C2A5E4F508F509C290C291D292C261
:10082000A0C2A1D2A2750A02750D02E50C64016096
:1008300003020968E50D64026003020968E50A64C1
:06084000026003020968DA
:10084600C280D281C282C283C284120A66F50EC3F6
:10085600E50E9408748094805007120A6A050E808B
:10086600EEC280D281C282C283120A64E4F50EC34C
:10087600E50E9408748094805007120A6A050E806B
:10088600EED280C281C282D283120A64E4F50EC31C
:10089600E50E9408748094805007120A6A050E804B
:1008A600EEC280C281C282C283D284D285C286123F
:1008B6000A6AE4F50EC3E50E940874809480500726
:1008C600120A6A050E80EEC280C281D282C283C23B
:1008D60084D285C286120A6AE4F50EC3E50E940830
:1008E600748094805007120A6A050E80EED280C288
:1008F60081C282D283D284D285D286120A6AE4F574
:100906000EC3E50E9408748094805007120A6A0597
:100916000E80EEC280C281C282C283C284C285D2E8
:1009260086120A6AE4F50EC3E50E94087480948074
:100936005007120A6A050E80EED280D281D282D288
:1009460083D284D285D286120A6AE4F50EC3E50EF6
:100956009408748094805007120A6A050E80EEE4AB
:02096600F50C8E
:100968007FAC7E0D120A44C290D291C292C2A0D22C
:10097800A1C2A2750A01750D017FEE7E02120A441A
:10098800D290C291C292D2A0C2A1C2A2E4F50AF545
:100998000D120A44C293C294D295C2A3C2A4D2A58E
:1009A800750802750902E50B64017048E50D70448D
:1009B800E50A7040E5096402703AE508640270349B
:1009C800C293C294D295D2A3C2A4C2A5750802F557
:1009D80009D2A67FFAFE120A3F120A33120A33C25C
:1009E80093C294D295C2A3C2A4D2A5750802750970
:1009F80002E4F50B7FAC7E0D120A44C293D294C276
:100A080095C2A3D2A4C2A57508017509017FEE7E1F
:100A180002120A44D293C294C295D2A3C2A4C2A518
:0B0A2800E4F508F509120A4402080872
:00000001FF
